{
  "_format": "hh-sol-artifact-1",
  "contractName": "Voting",
  "sourceName": "contracts/Voting.sol",
  "abi": [
    {
      "inputs": [
        {
          "internalType": "string[]",
          "name": "candidateNames",
          "type": "string[]"
        }
      ],
      "stateMutability": "nonpayable",
      "type": "constructor"
    },
    {
      "anonymous": false,
      "inputs": [
        {
          "indexed": true,
          "internalType": "address",
          "name": "voter",
          "type": "address"
        },
        {
          "indexed": false,
          "internalType": "uint256",
          "name": "reputation",
          "type": "uint256"
        }
      ],
      "name": "ReputationUpdated",
      "type": "event"
    },
    {
      "anonymous": false,
      "inputs": [
        {
          "indexed": true,
          "internalType": "address",
          "name": "voter",
          "type": "address"
        },
        {
          "indexed": false,
          "internalType": "uint256",
          "name": "candidateIndex",
          "type": "uint256"
        }
      ],
      "name": "Voted",
      "type": "event"
    },
    {
      "inputs": [],
      "name": "admin",
      "outputs": [
        {
          "internalType": "address",
          "name": "",
          "type": "address"
        }
      ],
      "stateMutability": "view",
      "type": "function"
    },
    {
      "inputs": [
        {
          "internalType": "uint256",
          "name": "",
          "type": "uint256"
        }
      ],
      "name": "candidates",
      "outputs": [
        {
          "internalType": "string",
          "name": "name",
          "type": "string"
        },
        {
          "internalType": "uint256",
          "name": "votes",
          "type": "uint256"
        }
      ],
      "stateMutability": "view",
      "type": "function"
    },
    {
      "inputs": [],
      "name": "getCandidates",
      "outputs": [
        {
          "components": [
            {
              "internalType": "string",
              "name": "name",
              "type": "string"
            },
            {
              "internalType": "uint256",
              "name": "votes",
              "type": "uint256"
            }
          ],
          "internalType": "struct Voting.Candidate[]",
          "name": "",
          "type": "tuple[]"
        }
      ],
      "stateMutability": "view",
      "type": "function"
    },
    {
      "inputs": [
        {
          "internalType": "address",
          "name": "voter",
          "type": "address"
        }
      ],
      "name": "getReputation",
      "outputs": [
        {
          "internalType": "uint256",
          "name": "",
          "type": "uint256"
        }
      ],
      "stateMutability": "view",
      "type": "function"
    },
    {
      "inputs": [],
      "name": "resetVotes",
      "outputs": [],
      "stateMutability": "nonpayable",
      "type": "function"
    },
    {
      "inputs": [
        {
          "internalType": "uint256",
          "name": "candidateIndex",
          "type": "uint256"
        }
      ],
      "name": "vote",
      "outputs": [],
      "stateMutability": "nonpayable",
      "type": "function"
    },
    {
      "inputs": [
        {
          "internalType": "address",
          "name": "",
          "type": "address"
        }
      ],
      "name": "voters",
      "outputs": [
        {
          "internalType": "bool",
          "name": "hasVoted",
          "type": "bool"
        },
        {
          "internalType": "uint256",
          "name": "reputation",
          "type": "uint256"
        }
      ],
      "stateMutability": "view",
      "type": "function"
    }
  ],
  "bytecode": "0x608060405234801561001057600080fd5b506040516114643803806114648339818101604052810190610032919061036a565b336000806101000a81548173ffffffffffffffffffffffffffffffffffffffff021916908373ffffffffffffffffffffffffffffffffffffffff16021790555060005b8151811015610108576002604051806040016040528084848151811061009e5761009d6103b3565b5b602002602001015181526020016000815250908060018154018082558091505060019003906000526020600020906002020160009091909190915060008201518160000190816100ee9190610603565b506020820151816001015550508080600101915050610075565b50506106d5565b6000604051905090565b600080fd5b600080fd5b600080fd5b6000601f19601f8301169050919050565b7f4e487b7100000000000000000000000000000000000000000000000000000000600052604160045260246000fd5b61017182610128565b810181811067ffffffffffffffff821117156101905761018f610139565b5b80604052505050565b60006101a361010f565b90506101af8282610168565b919050565b600067ffffffffffffffff8211156101cf576101ce610139565b5b602082029050602081019050919050565b600080fd5b600080fd5b600067ffffffffffffffff82111561020557610204610139565b5b61020e82610128565b9050602081019050919050565b60005b8381101561023957808201518184015260208101905061021e565b60008484015250505050565b6000610258610253846101ea565b610199565b905082815260208101848484011115610274576102736101e5565b5b61027f84828561021b565b509392505050565b600082601f83011261029c5761029b610123565b5b81516102ac848260208601610245565b91505092915050565b60006102c86102c3846101b4565b610199565b905080838252602082019050602084028301858111156102eb576102ea6101e0565b5b835b8181101561033257805167ffffffffffffffff8111156103105761030f610123565b5b80860161031d8982610287565b855260208501945050506020810190506102ed565b5050509392505050565b600082601f83011261035157610350610123565b5b81516103618482602086016102b5565b91505092915050565b6000602082840312156103805761037f610119565b5b600082015167ffffffffffffffff81111561039e5761039d61011e565b5b6103aa8482850161033c565b91505092915050565b7f4e487b7100000000000000000000000000000000000000000000000000000000600052603260045260246000fd5b600081519050919050565b7f4e487b7100000000000000000000000000000000000000000000000000000000600052602260045260246000fd5b6000600282049050600182168061043457607f821691505b602082108103610447576104466103ed565b5b50919050565b60008190508160005260206000209050919050565b60006020601f8301049050919050565b600082821b905092915050565b6000600883026104af7fffffffffffffffffffffffffffffffffffffffffffffffffffffffffffffffff82610472565b6104b98683610472565b95508019841693508086168417925050509392505050565b6000819050919050565b6000819050919050565b60006105006104fb6104f6846104d1565b6104db565b6104d1565b9050919050565b6000819050919050565b61051a836104e5565b61052e61052682610507565b84845461047f565b825550505050565b600090565b610543610536565b61054e818484610511565b505050565b5b818110156105725761056760008261053b565b600181019050610554565b5050565b601f8211156105b7576105888161044d565b61059184610462565b810160208510156105a0578190505b6105b46105ac85610462565b830182610553565b50505b505050565b600082821c905092915050565b60006105da600019846008026105bc565b1980831691505092915050565b60006105f383836105c9565b9150826002028217905092915050565b61060c826103e2565b67ffffffffffffffff81111561062557610624610139565b5b61062f825461041c565b61063a828285610576565b600060209050601f83116001811461066d576000841561065b578287015190505b61066585826105e7565b8655506106cd565b601f19841661067b8661044d565b60005b828110156106a35784890151825560018201915060208501945060208101905061067e565b868310156106c057848901516106bc601f8916826105c9565b8355505b6001600288020188555050505b505050505050565b610d80806106e46000396000f3fe608060405234801561001057600080fd5b506004361061007d5760003560e01c80639c89a0e21161005b5780639c89a0e2146100ed578063a3ec138d1461011d578063b9830ff11461014e578063f851a440146101585761007d565b80630121b93f1461008257806306a49fce1461009e5780633477ee2e146100bc575b600080fd5b61009c6004803603810190610097919061078a565b610176565b005b6100a661041e565b6040516100b39190610955565b60405180910390f35b6100d660048036038101906100d1919061078a565b610519565b6040516100e49291906109d0565b60405180910390f35b61010760048036038101906101029190610a5e565b6105d5565b6040516101149190610a8b565b60405180910390f35b61013760048036038101906101329190610a5e565b610621565b604051610145929190610ac1565b60405180910390f35b610156610652565b005b61016061072b565b60405161016d9190610af9565b60405180910390f35b600160003373ffffffffffffffffffffffffffffffffffffffff1673ffffffffffffffffffffffffffffffffffffffff16815260200190815260200160002060000160009054906101000a900460ff1615610206576040517f08c379a00000000000000000000000000000000000000000000000000000000081526004016101fd90610b60565b60405180910390fd5b600280549050811061024d576040517f08c379a000000000000000000000000000000000000000000000000000000000815260040161024490610bcc565b60405180910390fd5b60016002828154811061026357610262610bec565b5b906000526020600020906002020160010160008282546102839190610c4a565b9250508190555060018060003373ffffffffffffffffffffffffffffffffffffffff1673ffffffffffffffffffffffffffffffffffffffff16815260200190815260200160002060000160006101000a81548160ff02191690831515021790555060018060003373ffffffffffffffffffffffffffffffffffffffff1673ffffffffffffffffffffffffffffffffffffffff16815260200190815260200160002060010160008282546103369190610c4a565b925050819055503373ffffffffffffffffffffffffffffffffffffffff167f4d99b957a2bc29a30ebd96a7be8e68fe50a3c701db28a91436490b7d53870ca4826040516103839190610a8b565b60405180910390a23373ffffffffffffffffffffffffffffffffffffffff167ffc577563f1b9a0461e24abef1e1fcc0d33d3d881f20b5df6dda59de4aae2c821600160003373ffffffffffffffffffffffffffffffffffffffff1673ffffffffffffffffffffffffffffffffffffffff168152602001908152602001600020600101546040516104139190610a8b565b60405180910390a250565b60606002805480602002602001604051908101604052809291908181526020016000905b82821015610510578382906000526020600020906002020160405180604001604052908160008201805461047590610cad565b80601f01602080910402602001604051908101604052809291908181526020018280546104a190610cad565b80156104ee5780601f106104c3576101008083540402835291602001916104ee565b820191906000526020600020905b8154815290600101906020018083116104d157829003601f168201915b5050505050815260200160018201548152505081526020019060010190610442565b50505050905090565b6002818154811061052957600080fd5b906000526020600020906002020160009150905080600001805461054c90610cad565b80601f016020809104026020016040519081016040528092919081815260200182805461057890610cad565b80156105c55780601f1061059a576101008083540402835291602001916105c5565b820191906000526020600020905b8154815290600101906020018083116105a857829003601f168201915b5050505050908060010154905082565b6000600160008373ffffffffffffffffffffffffffffffffffffffff1673ffffffffffffffffffffffffffffffffffffffff168152602001908152602001600020600101549050919050565b60016020528060005260406000206000915090508060000160009054906101000a900460ff16908060010154905082565b60008054906101000a900473ffffffffffffffffffffffffffffffffffffffff1673ffffffffffffffffffffffffffffffffffffffff163373ffffffffffffffffffffffffffffffffffffffff16146106e0576040517f08c379a00000000000000000000000000000000000000000000000000000000081526004016106d790610d2a565b60405180910390fd5b60005b6002805490508110156107285760006002828154811061070657610705610bec565b5b90600052602060002090600202016001018190555080806001019150506106e3565b50565b60008054906101000a900473ffffffffffffffffffffffffffffffffffffffff1681565b600080fd5b6000819050919050565b61076781610754565b811461077257600080fd5b50565b6000813590506107848161075e565b92915050565b6000602082840312156107a05761079f61074f565b5b60006107ae84828501610775565b91505092915050565b600081519050919050565b600082825260208201905092915050565b6000819050602082019050919050565b600081519050919050565b600082825260208201905092915050565b60005b8381101561081d578082015181840152602081019050610802565b60008484015250505050565b6000601f19601f8301169050919050565b6000610845826107e3565b61084f81856107ee565b935061085f8185602086016107ff565b61086881610829565b840191505092915050565b61087c81610754565b82525050565b6000604083016000830151848203600086015261089f828261083a565b91505060208301516108b46020860182610873565b508091505092915050565b60006108cb8383610882565b905092915050565b6000602082019050919050565b60006108eb826107b7565b6108f581856107c2565b935083602082028501610907856107d3565b8060005b85811015610943578484038952815161092485826108bf565b945061092f836108d3565b925060208a0199505060018101905061090b565b50829750879550505050505092915050565b6000602082019050818103600083015261096f81846108e0565b905092915050565b600082825260208201905092915050565b6000610993826107e3565b61099d8185610977565b93506109ad8185602086016107ff565b6109b681610829565b840191505092915050565b6109ca81610754565b82525050565b600060408201905081810360008301526109ea8185610988565b90506109f960208301846109c1565b9392505050565b600073ffffffffffffffffffffffffffffffffffffffff82169050919050565b6000610a2b82610a00565b9050919050565b610a3b81610a20565b8114610a4657600080fd5b50565b600081359050610a5881610a32565b92915050565b600060208284031215610a7457610a7361074f565b5b6000610a8284828501610a49565b91505092915050565b6000602082019050610aa060008301846109c1565b92915050565b60008115159050919050565b610abb81610aa6565b82525050565b6000604082019050610ad66000830185610ab2565b610ae360208301846109c1565b9392505050565b610af381610a20565b82525050565b6000602082019050610b0e6000830184610aea565b92915050565b7f596f75206861766520616c726561647920766f74656421000000000000000000600082015250565b6000610b4a601783610977565b9150610b5582610b14565b602082019050919050565b60006020820190508181036000830152610b7981610b3d565b9050919050565b7f496e76616c69642063616e64696461746520696e646578210000000000000000600082015250565b6000610bb6601883610977565b9150610bc182610b80565b602082019050919050565b60006020820190508181036000830152610be581610ba9565b9050919050565b7f4e487b7100000000000000000000000000000000000000000000000000000000600052603260045260246000fd5b7f4e487b7100000000000000000000000000000000000000000000000000000000600052601160045260246000fd5b6000610c5582610754565b9150610c6083610754565b9250828201905080821115610c7857610c77610c1b565b5b92915050565b7f4e487b7100000000000000000000000000000000000000000000000000000000600052602260045260246000fd5b60006002820490506001821680610cc557607f821691505b602082108103610cd857610cd7610c7e565b5b50919050565b7f4f6e6c792061646d696e2063616e20726573657420766f746573000000000000600082015250565b6000610d14601a83610977565b9150610d1f82610cde565b602082019050919050565b60006020820190508181036000830152610d4381610d07565b905091905056fea264697066735822122074499001eb8f4d79f3f5d1552f65e6d79648c073005f1c07ae0d2c79e8ec43dc64736f6c634300081c0033",
  "linkReferences": {},
  "deployedLinkReferences": {}
}